:020000000A28CC
:10000800FE00030EF9000A08FA008B280B28AA0143
:10001800AB01AC01AD01AE01AF01B001B10183018B
:1000280004290030AD190130A00000302D1901302D
:10003800A1000030AD180130A20000302D180130A9
:10004800A3000030AE1A0130A40000302E1A01308F
:10005800A5000030AE190130A60000302E1901307D
:10006800A7000030AE180130A80000302E1801306B
:10007800A9002308F00006300310F00DFF3E031D11
:1000880040282208F10007300310F10DFF3E03104D
:10009800031D4928200D710470042104FF3A8500CE
:1000A8002908F0000310F00D0310F00D0310F00DF7
:1000B8002808F100710EF039F1002708F200053028
:1000C8000310F20DFF3E031D64282608F3000630D6
:1000D8000310F30DFF3E031D6C282508F4000730BC
:1000E8000310F40DFF3E031D74282408F5000130A9
:1000F8000310F50DFF3E0310031D7D28750D7404D4
:100108007304720471047004FF3A860008000B112E
:10011800803083120313AB0701300318AC07061CA9
:10012800B10A2F0BAC28061CAC280F30310203187B
:100138009F28AE0AA028AD0A0C30F0002D08E82050
:10014800AD003C30F0002E08E820AE001520B101CB
:100158000310061C0314003003180130AF000F30E1
:100168002C02031DBD2842302B02031DBD28403040
:100178002A02031CE1284030F6004230F7000F3015
:10018800F8007608AA027708031C770FAB027808F4
:10019800031C780AAC02B00A30083C3A031DE02878
:1001A800B001AE0A2E083C3A031DE028AE01AD0AA4
:1001B8002D080C3A0319AD0115207A088A00790E2A
:1001C8008300FE0E7E0E0900F2000830F300F401F1
:1001D8007208F10007300310F10CFF3E0310031DF5
:1001E800F028740D7104F4000310F20D7008740205
:1001F800031C00297008F402F30BEC2874080800AB
:10020800831601100115011D0D298316031381148E
:100218001029831603138110811181128B160B1775
:100228008B170130860085018312850186018316AC
:0402380081131D29E8
:02400E0038FF79
:00000001FF
